{
  "contractName": "VerifiablePresentationStore",
  "abi": [
    {
      "anonymous": false,
      "inputs": [
        {
          "indexed": true,
          "internalType": "address",
          "name": "owner",
          "type": "address"
        },
        {
          "indexed": false,
          "internalType": "string",
          "name": "publicKey",
          "type": "string"
        }
      ],
      "name": "DIDDocumentStored",
      "type": "event"
    },
    {
      "anonymous": false,
      "inputs": [
        {
          "indexed": true,
          "internalType": "bytes32",
          "name": "vpHash",
          "type": "bytes32"
        },
        {
          "indexed": false,
          "internalType": "string",
          "name": "vp",
          "type": "string"
        },
        {
          "indexed": true,
          "internalType": "address",
          "name": "owner",
          "type": "address"
        }
      ],
      "name": "PresentationStored",
      "type": "event"
    },
    {
      "inputs": [
        {
          "internalType": "address",
          "name": "",
          "type": "address"
        }
      ],
      "name": "didDocuments",
      "outputs": [
        {
          "internalType": "string",
          "name": "publicKey",
          "type": "string"
        }
      ],
      "stateMutability": "view",
      "type": "function",
      "constant": true
    },
    {
      "inputs": [
        {
          "internalType": "bytes32",
          "name": "",
          "type": "bytes32"
        }
      ],
      "name": "presentations",
      "outputs": [
        {
          "internalType": "string",
          "name": "vp",
          "type": "string"
        },
        {
          "internalType": "address",
          "name": "owner",
          "type": "address"
        }
      ],
      "stateMutability": "view",
      "type": "function",
      "constant": true
    },
    {
      "inputs": [
        {
          "internalType": "string",
          "name": "_publicKey",
          "type": "string"
        }
      ],
      "name": "storeDIDDocument",
      "outputs": [],
      "stateMutability": "nonpayable",
      "type": "function"
    },
    {
      "inputs": [
        {
          "internalType": "string",
          "name": "_vp",
          "type": "string"
        }
      ],
      "name": "storeVP",
      "outputs": [],
      "stateMutability": "nonpayable",
      "type": "function"
    },
    {
      "inputs": [
        {
          "internalType": "bytes32",
          "name": "_vpHash",
          "type": "bytes32"
        }
      ],
      "name": "vpExists",
      "outputs": [
        {
          "internalType": "bool",
          "name": "",
          "type": "bool"
        }
      ],
      "stateMutability": "view",
      "type": "function",
      "constant": true
    },
    {
      "inputs": [
        {
          "internalType": "address",
          "name": "_owner",
          "type": "address"
        }
      ],
      "name": "getDIDDocument",
      "outputs": [
        {
          "internalType": "string",
          "name": "",
          "type": "string"
        }
      ],
      "stateMutability": "view",
      "type": "function",
      "constant": true
    }
  ],
  "bytecode": "0x608060405234801561001057600080fd5b50610ba0806100206000396000f3fe608060405234801561001057600080fd5b50600436106100625760003560e01c806310a0b031146100675780631d46b880146100975780635b8a59e3146100b35780635c8727f7146100e3578063ad578ff7146100ff578063d86bba8014610130575b600080fd5b610081600480360381019061007c91906106e5565b610160565b60405161008e919061072d565b60405180910390f35b6100b160048036038101906100ac919061088e565b61018d565b005b6100cd60048036038101906100c89190610935565b61024c565b6040516100da91906109ea565b60405180910390f35b6100fd60048036038101906100f8919061088e565b610320565b005b610119600480360381019061011491906106e5565b610486565b604051610127929190610a1b565b60405180910390f35b61014a60048036038101906101459190610935565b610552565b60405161015791906109ea565b60405180910390f35b600080600080848152602001908152602001600020600001805461018390610a7a565b9050119050919050565b604051806020016040528082815250600160003373ffffffffffffffffffffffffffffffffffffffff1673ffffffffffffffffffffffffffffffffffffffff16815260200190815260200160002060008201518160000190805190602001906101f79291906105f8565b509050503373ffffffffffffffffffffffffffffffffffffffff167f1bde11dd53e731afb63a983fd3cb7236f125321040b806d07e6299c74376b2388260405161024191906109ea565b60405180910390a250565b6060600160008373ffffffffffffffffffffffffffffffffffffffff1673ffffffffffffffffffffffffffffffffffffffff168152602001908152602001600020600001805461029b90610a7a565b80601f01602080910402602001604051908101604052809291908181526020018280546102c790610a7a565b80156103145780601f106102e957610100808354040283529160200191610314565b820191906000526020600020905b8154815290600101906020018083116102f757829003601f168201915b50505050509050919050565b6000815111610364576040517f08c379a000000000000000000000000000000000000000000000000000000000815260040161035b90610af7565b60405180910390fd5b6000816040516020016103779190610b53565b60405160208183030381529060405280519060200120905060405180604001604052808381526020013373ffffffffffffffffffffffffffffffffffffffff1681525060008083815260200190815260200160002060008201518160000190805190602001906103e89291906105f8565b5060208201518160010160006101000a81548173ffffffffffffffffffffffffffffffffffffffff021916908373ffffffffffffffffffffffffffffffffffffffff1602179055509050503373ffffffffffffffffffffffffffffffffffffffff16817f6e00974ac9783eb54a1a6cb91479e44002031aa438b807a865c2d562f0f5c38b8460405161047a91906109ea565b60405180910390a35050565b60006020528060005260406000206000915090508060000180546104a990610a7a565b80601f01602080910402602001604051908101604052809291908181526020018280546104d590610a7a565b80156105225780601f106104f757610100808354040283529160200191610522565b820191906000526020600020905b81548152906001019060200180831161050557829003601f168201915b5050505050908060010160009054906101000a900473ffffffffffffffffffffffffffffffffffffffff16905082565b600160205280600052604060002060009150905080600001805461057590610a7a565b80601f01602080910402602001604051908101604052809291908181526020018280546105a190610a7a565b80156105ee5780601f106105c3576101008083540402835291602001916105ee565b820191906000526020600020905b8154815290600101906020018083116105d157829003601f168201915b5050505050905081565b82805461060490610a7a565b90600052602060002090601f016020900481019282610626576000855561066d565b82601f1061063f57805160ff191683800117855561066d565b8280016001018555821561066d579182015b8281111561066c578251825591602001919060010190610651565b5b50905061067a919061067e565b5090565b5b8082111561069757600081600090555060010161067f565b5090565b6000604051905090565b600080fd5b600080fd5b6000819050919050565b6106c2816106af565b81146106cd57600080fd5b50565b6000813590506106df816106b9565b92915050565b6000602082840312156106fb576106fa6106a5565b5b6000610709848285016106d0565b91505092915050565b60008115159050919050565b61072781610712565b82525050565b6000602082019050610742600083018461071e565b92915050565b600080fd5b600080fd5b6000601f19601f8301169050919050565b7f4e487b7100000000000000000000000000000000000000000000000000000000600052604160045260246000fd5b61079b82610752565b810181811067ffffffffffffffff821117156107ba576107b9610763565b5b80604052505050565b60006107cd61069b565b90506107d98282610792565b919050565b600067ffffffffffffffff8211156107f9576107f8610763565b5b61080282610752565b9050602081019050919050565b82818337600083830152505050565b600061083161082c846107de565b6107c3565b90508281526020810184848401111561084d5761084c61074d565b5b61085884828561080f565b509392505050565b600082601f83011261087557610874610748565b5b813561088584826020860161081e565b91505092915050565b6000602082840312156108a4576108a36106a5565b5b600082013567ffffffffffffffff8111156108c2576108c16106aa565b5b6108ce84828501610860565b91505092915050565b600073ffffffffffffffffffffffffffffffffffffffff82169050919050565b6000610902826108d7565b9050919050565b610912816108f7565b811461091d57600080fd5b50565b60008135905061092f81610909565b92915050565b60006020828403121561094b5761094a6106a5565b5b600061095984828501610920565b91505092915050565b600081519050919050565b600082825260208201905092915050565b60005b8381101561099c578082015181840152602081019050610981565b838111156109ab576000848401525b50505050565b60006109bc82610962565b6109c6818561096d565b93506109d681856020860161097e565b6109df81610752565b840191505092915050565b60006020820190508181036000830152610a0481846109b1565b905092915050565b610a15816108f7565b82525050565b60006040820190508181036000830152610a3581856109b1565b9050610a446020830184610a0c565b9392505050565b7f4e487b7100000000000000000000000000000000000000000000000000000000600052602260045260246000fd5b60006002820490506001821680610a9257607f821691505b602082108103610aa557610aa4610a4b565b5b50919050565b7f56502063616e6e6f7420626520656d7074790000000000000000000000000000600082015250565b6000610ae160128361096d565b9150610aec82610aab565b602082019050919050565b60006020820190508181036000830152610b1081610ad4565b9050919050565b600081905092915050565b6000610b2d82610962565b610b378185610b17565b9350610b4781856020860161097e565b80840191505092915050565b6000610b5f8284610b22565b91508190509291505056fea26469706673582212202eba36b986815bff439122779fd4ac9fb3ed8c1c6d1829fadf3a1820b6dec6b764736f6c634300080d0033",
  "immutableReferences": {},
  "source": "// SPDX-License-Identifier: MIT\npragma solidity ^0.8.0;\n\ncontract VerifiablePresentationStore {\n    struct VerifiablePresentation {\n        string vp; // Store the VP as a string\n        address owner; // Store the address of the owner\n    }\n\n    struct DIDDocument {\n        string publicKey; // Store public key\n    }\n\n    mapping(bytes32 => VerifiablePresentation) public presentations; // Mapping for VPs\n    mapping(address => DIDDocument) public didDocuments; // Mapping for DID documents\n\n    event PresentationStored(bytes32 indexed vpHash, string vp, address indexed owner);\n    event DIDDocumentStored(address indexed owner, string publicKey);\n\n    // Function to store the DID document\n    function storeDIDDocument(string memory _publicKey) public {\n        didDocuments[msg.sender] = DIDDocument(_publicKey);\n        emit DIDDocumentStored(msg.sender, _publicKey);\n    }\n\n    // Function to store a VP\n    function storeVP(string memory _vp) public {\n        require(bytes(_vp).length > 0, \"VP cannot be empty\");\n        bytes32 vpHash = keccak256(abi.encodePacked(_vp)); // Generate a hash of the VP\n        presentations[vpHash] = VerifiablePresentation(_vp, msg.sender); // Store VP\n        emit PresentationStored(vpHash, _vp, msg.sender); // Emit event\n    }\n\n    // Function to check if a VP exists\n    function vpExists(bytes32 _vpHash) public view returns (bool) {\n        return bytes(presentations[_vpHash].vp).length > 0; // Check if VP is stored\n    }\n\n    // Function to retrieve the DID document\n    function getDIDDocument(address _owner) public view returns (string memory) {\n        return didDocuments[_owner].publicKey; // Retrieve public key\n    }\n}\n",
  "sourcePath": "/Users/peerawichayapholwiset/Desktop/blockchain/blockchain/SSI-process/contracts/VerifiablePresentationStore.sol",
  "compiler": {
    "name": "solc",
    "version": "0.8.13+commit.abaa5c0e.Emscripten.clang"
  },
  "schemaVersion": "3.4.16",
  "updatedAt": "2024-10-10T06:31:46.074Z",
  "networkType": "ethereum",
  "devdoc": {
    "kind": "dev",
    "methods": {},
    "version": 1
  },
  "userdoc": {
    "kind": "user",
    "methods": {},
    "version": 1
  }
}